:020000040000FA
:0400000007EF00F016
:0A0008006D8244ED18F0BAEF1AF013
:1006000000233A50617573652023233A53746F7049
:10061000200048656174696E672050726F6365736E
:100620007320002D2D2D2D2D2D2D2D2D2D2D2D2DEE
:100630002D2D2D0048656174696E672066696E69AD
:100640007368656400446F6F725F53743A20204F83
:1006500070656E656400446F6F725F53743A20205A
:10066000436C6F73656400496E736964655F5374AE
:100670003A2020466F6F6400496E736964655F536A
:10068000743A4E5F466F6F640054656D70657261B9
:10069000747572653A005052455353202723272022
:1006A000746F0072657475726E20686F6D650057A7
:1006B000656C636F6D6520746F0053574946542015
:1006C000414354004D6963726F5761766500546908
:1006D0006D65723A0030303A30300054696D653AD9
:0B06E000005F5F3A5F5F003A200000FF
:1006EC00226E2250126E136A146A156AD00E166EA0
:1006FC00070E176E000E186E000E196E9EEC19F098
:10070C0012C040F013C041F014C042F015C043F0C9
:10071C004350421008E14028FF0E4158D8B099EFE1
:10072C0003F09BEF03F0A3EF03F0080E606E69EC8F
:10073C0019F0030E236E03EF05F040C01EF041C00C
:10074C001FF042C020F043C021F0D890213220325B
:10075C001F321E322150201008E11E28FF0E1F5898
:10076C00D8B0BBEF03F0BDEF03F0C6EF03F0000E03
:10077C00606ED89043324232413240329DEF03F0EA
:10078C0040C01EF041C01FF042C020F043C021F019
:10079C00030ED6EF03F0D890213220321F321E32D6
:1007AC00E82ED1EF03F02150201008E11E28FF0E97
:1007BC001F58D8B0E4EF03F0E6EF03F0F4EF03F0CA
:1007CC00010E606E020E1E6ED890433242324132E0
:1007DC0040321E2EEAEF03F09DEF03F040C01EF0F6
:1007EC0041C01FF042C020F043C021F0040E04EFC2
:1007FC0004F0D890213220321F321E32E82EFFEF47
:10080C0003F02150201008E11E28FF0E1F58D8B00D
:10081C0012EF04F014EF04F022EF04F0020E606EFD
:10082C00030E1E6ED89043324232413240321E2E9D
:10083C0018EF04F09DEF03F040C01EF041C01FF014
:10084C0042C020F043C021F0050E32EF04F0D890E6
:10085C00213220321F321E32E82E2DEF04F02150AF
:10086C00201008E11E28FF0E1F58D8B040EF04F0EE
:10087C0042EF04F050EF04F0030E606E040E1E6E97
:10088C00D89043324232413240321E2E46EF04F0B1
:10089C009DEF03F040C01EF041C01FF042C020F09D
:1008AC0043C021F0060E60EF04F0D89021322032C4
:1008BC001F321E32E82E5BEF04F02150201008E1AD
:1008CC001E28FF0E1F58D8B06EEF04F070EF04F026
:1008DC007EEF04F0040E606E050E1E6ED89043324F
:1008EC004232413240321E2E74EF04F09DEF03F081
:1008FC0040C01EF041C01FF042C020F043C021F0A8
:10090C00070E8EEF04F0D890213220321F321E32A7
:10091C00E82E89EF04F02150201008E11E28FF0E6C
:10092C001F58D8B09CEF04F09EEF04F0ACEF04F02D
:10093C00050E606E060E1E6ED89043324232413266
:10094C0040321E2EA2EF04F09DEF03F040C01EF0CB
:10095C0041C01FF042C020F043C021F0080EBCEF94
:10096C0004F0D890213220321F321E32E82EB7EF1D
:10097C0004F02150201008E11E28FF0E1F58D8B09B
:10098C00CAEF04F0CCEF04F0DAEF04F0060E606E60
:10099C00070E1E6ED89043324232413240321E2E28
:1009AC00D0EF04F09DEF03F040C01EF041C01FF0EB
:1009BC0042C020F043C021F01FC01EF020C01FF029
:1009CC0021C020F0216A2150201008E11E28FF0EC2
:1009DC001F58D8B0F4EF04F0F6EF04F001EF05F077
:1009EC00070E606E41C040F042C041F043C042F07F
:1009FC00436A9DEF03F0000E236E2350120043EF69
:100A0C0006F0020E5518D8A40EEF05F010EF05F005
:100A1C001CEF05F0300E676E300E686E300E6A6E8D
:100A2C00300E6B6E000E5A6E000E556E33EC19F0D4
:100A3C00226E0A0E226025EF05F027EF05F0DAEFA3
:100A4C0005F022C065F0BDEF05F06550300F6B6E00
:100A5C006550D8B434EF05F036EF05F037EF05F0FC
:100A6C005A2A65C048F0496A5CEF06F06BC06AF020
:100A7C006550300F6B6E5A2A48C01AF049C01BF0F3
:100A8C00000E1D6E0A0E1C6E0CEC1BF065501A2429
:100A9C00486E000E1B20496E5CEF06F06AC068F0D1
:100AAC006BC06AF06550300F6B6E5A2A68503C0D63
:100ABC00F3CF20F0F4CF21F06A500A0DF35020262A
:100ACC00F450212265502026000E2122E00E202415
:100ADC00486EF20E2120496E5CEF06F0390E681854
:100AEC00D8A47BEF05F07DEF05F08EEF05F0390E05
:100AFC006A18D8A484EF05F086EF05F08EEF05F0A8
:100B0C00360E6B608CEF05F08EEF05F01FEF06F0E4
:100B1C0068C067F06AC068F06BC06AF06550300F4F
:100B2C006B6E5A2A67C01AF01B6A020E1D6E580EA5
:100B3C001C6E0CEC1BF068503C0DF3CF20F0F4CF86
:100B4C0021F06A500A0DF3502026F45021221A503D
:100B5C0020261B50212265502026000E2122600EDB
:100B6C002024486E820E2120496E5CEF06F05A500C
:100B7C00206E216A2150000AD8B4C7EF05F01FEF90
:100B8C0006F02050000AD8B42BEF05F0010AD8B4B7
:100B9C003CEF05F0030AD8B454EF05F0010AD8B4C1
:100BAC0074EF05F01FEF06F02A0E2218D8A4E1EF1F
:100BBC0005F0E3EF05F004EF06F022C065F04850B5
:100BCC004910D8B4ECEF05F0EEEF05F05CEF06F051
:100BDC006604D8A4F4EF05F0F6EF05F05CEF06F030
:100BEC005B04D8A4FCEF05F0FEEF05F05CEF06F01B
:100BFC00050E5A6E010E5D6E5CEF06F0230E221888
:100C0C00D8A40BEF06F00DEF06F01FEF06F022C094
:100C1C0065F0300E676E300E686E300E6A6E300EF8
:100C2C006B6E000E5A6E000E496E000E486E5CEF35
:100C3C0006F05CEF06F033EC19F0226E230E22184E
:100C4C00D8A42BEF06F02DEF06F05CEF06F022C0D7
:100C5C0065F0000E5D6E5CEF06F0020E556E33EC27
:100C6C0019F0226E230E2218D8A43FEF06F041EFA4
:100C7C0006F05CEF06F02DEF06F05D50206E216A59
:100C8C002150000AD8B44DEF06F05CEF06F020506E
:100C9C00000AD8B407EF05F0010AD8B421EF06F02A
:100CAC00030AD8B433EF06F05CEF06F01200070E1F
:100CBC00126E010E136E020E00EC09F091EF07F0AC
:100CCC005604D8A46CEF06F06EEF06F08AEF06F02F
:100CDC00030E196E000E6EEC17F0560E1E6E060EFD
:100CEC001F6E05EC1AF0040E196E000E6EEC17F068
:100CFC00670E1E6E060E1F6E05EC1AF0000E566E79
:100D0C005F0E656EABEF07F0020E5618D8A491EF8C
:100D1C0006F093EF06F097EF06F0BFEC16F084EFB9
:100D2C0006F0020E196E0D0E6EEC17F05950000104
:100D3C00DA6FDB6B1B0EDA27000EDB23DAC02BF02D
:100D4C00DBC02CF02D6A2E6A42EC0BF05804D8A4B0
:100D5C00B2EF06F0B4EF06F0D6EF06F06650D8A46A
:100D6C00BAEF06F0BCEF06F0C9EF06F0030E196EF1
:100D7C000A0E6EEC17F04F0E1E6E060E1F6E05EC73
:100D8C001AF0D4EF06F0030E196E0A0E6EEC17F083
:100D9C00600E1E6E060E1F6E05EC1AF0000E586EDD
:100DAC005704D8A4DCEF06F0DEEF06F000EF07F0F6
:100DBC005B50D8A4E4EF06F0E6EF06F0F3EF06F094
:100DCC00040E196E0A0E6EEC17F0820E1E6E060ED5
:100DDC001F6E05EC1AF0FEEF06F0040E196E0A0EEB
:100DEC006EEC17F0710E1E6E060E1F6E05EC1AF0EF
:100DFC00000E576E0A0E656006EF07F008EF07F05D
:100E0C001DEF07F0050E5A600EEF07F010EF07F01C
:100E1C001DEF07F0010E196E0B0E6EEC17F0670E3E
:100E2C001E6E000E1F6E05EC1AF086EF06F0230EF8
:100E3C006518D8A424EF07F026EF07F03EEF07F073
:100E4C00010E196E040E6EEC17F0E70E1E6E060EF8
:100E5C001F6E05EC1AF0010E196E0B0E6EEC17F0EE
:100E6C00E10E1E6E060E1F6E05EC1AF086EF06F0F4
:100E7C00ABEF07F05650D8A446EF07F048EF07F059
:100E8C0068EF07F0010E196E040E6EEC17F0D20E1F
:100E9C001E6E060E1F6E05EC1AF0030E196E000E78
:100EAC006EEC17F0120E1E6E060E1F6E05EC1AF08D
:100EBC00010E1E6E060E1F6E05EC1AF0010E566E1C
:100ECC005F0E656E020E196E0D0E6EEC17F059501A
:100EDC000001DA6FDB6B1B0EDA27000EDB23DAC0A6
:100EEC002BF0DBC02CF02D6A2E6A42EC0BF0C0EC20
:100EFC0014F0ABEF07F05604D8A487EF07F089EF96
:100F0C0007F08DEF07F080EC1BF0020E566E7CECB8
:100F1C0012F0ABEF07F05D500001DA6FDB6BDB51C9
:100F2C00000AD8B49CEF07F0ABEF07F0DA51000AD7
:100F3C00D8B466EF06F0010AD8B440EF07F0030A04
:100F4C00D8B481EF07F0ABEF07F0070E126E000E6E
:100F5C00136E020E00EC09F01200166EDEEF08F0B4
:100F6C00080E1260BCEF07F0BEEF07F0EFEF07F0D2
:100F7C001304D8A4C4EF07F0C6EF07F0D6EF07F0C0
:100F8C0012C014F0010E156E142ACFEF07F0D89092
:100F9C001536142ECDEF07F015509212FFEF08F016
:100FAC001350D8A4DCEF07F0DEEF07F0EFEF07F0FB
:100FBC0012C014F0010E156E142AE7EF07F0D8904A
:100FCC001536142EE5EF07F01550FF0A9216D4EFE4
:100FDC0007F0FFEF08F0080E1260F7EF07F0F9EFDB
:100FEC0007F0EFEF07F01304D8A4FFEF07F001EFC1
:100FFC0008F011EF08F012C014F0010E156E142A4F
:10100C000AEF08F0D8901536142E08EF08F015509A
:10101C009312D4EF07F01350D8A417EF08F019EF80
:10102C0008F0EFEF07F012C014F0010E156E142A41
:10103C0022EF08F0D8901536142E20EF08F015503A
:10104C00FF0A9316D4EF07F0080E126030EF08F089
:10105C0032EF08F0EFEF07F01304D8A438EF08F0E4
:10106C003AEF08F04AEF08F012C014F0010E156EBA
:10107C00142A43EF08F0D8901536142E41EF08F0DF
:10108C0015509412D4EF07F01350D8A450EF08F079
:10109C0052EF08F0EFEF07F012C014F0010E156ECE
:1010AC00142A5BEF08F0D8901536142E59EF08F07F
:1010BC001550FF0A9416D4EF07F0080E126069EF72
:1010CC0008F06BEF08F0EFEF07F01304D8A471EF02
:1010DC0008F073EF08F083EF08F012C014F0010E63
:1010EC00156E142A7CEF08F0D8901536142E7AEF72
:1010FC0008F015509512D4EF07F01350D8A489EFCF
:10110C0008F08BEF08F0EFEF07F012C014F0010EAF
:10111C00156E142A94EF08F0D8901536142E92EF11
:10112C0008F01550FF0A9516D4EF07F0040E126064
:10113C00A2EF08F0A4EF08F0EFEF07F01304D8A427
:10114C00AAEF08F0ACEF08F0BCEF08F012C014F0F6
:10115C00010E156E142AB5EF08F0D8901536142E22
:10116C00B3EF08F015509612D4EF07F01350D8A433
:10117C00C2EF08F0C4EF08F0EFEF07F0030E1218FF
:10118C00D8B4CBEF08F0CDEF08F0EFEF07F012C0BA
:10119C0014F0010E156E142AD6EF08F0D8901536FF
:1011AC00142ED4EF08F01550FF0A9616D4EF07F062
:1011BC001650146E156A1550000AD8B4E8EF08F0F2
:1011CC00EFEF07F01450000AD8B4B6EF07F0010A9D
:1011DC00D8B4F1EF07F0030AD8B42AEF08F0010AEB
:1011EC00D8B463EF08F0070AD8B49CEF08F0EFEF1F
:1011FC0007F01200166E22EF0AF0080E126009EFCB
:10120C0009F00BEF09F03CEF09F01304D8A411EF2F
:10121C0009F013EF09F023EF09F012C014F0010EDE
:10122C00156E142A1CEF09F0D8901536142E1AEFEF
:10123C0009F01550891243EF0AF01350D8A429EF86
:10124C0009F02BEF09F03CEF09F012C014F0010E7D
:10125C00156E142A34EF09F0D8901536142E32EF8F
:10126C0009F01550FF0A891621EF09F043EF0AF037
:10127C00080E126044EF09F046EF09F03CEF09F05C
:10128C001304D8A44CEF09F04EEF09F05EEF09F00F
:10129C0012C014F0010E156E142A57EF09F0D890F5
:1012AC001536142E55EF09F015508A1221EF09F05E
:1012BC001350D8A464EF09F066EF09F03CEF09F085
:1012CC0012C014F0010E156E142A6FEF09F0D890AD
:1012DC001536142E6DEF09F01550FF0A8A1621EF02
:1012EC0009F0080E12607DEF09F07FEF09F03CEF7A
:1012FC0009F01304D8A485EF09F087EF09F097EFF4
:10130C0009F012C014F0010E156E142A90EF09F0BA
:10131C00D8901536142E8EEF09F015508B1221EF44
:10132C0009F01350D8A49DEF09F09FEF09F03CEFA2
:10133C0009F012C014F0010E156E142AA8EF09F072
:10134C00D8901536142EA6EF09F01550FF0A8B16FF
:10135C0021EF09F0080E1260B6EF09F0B8EF09F0B2
:10136C003CEF09F01304D8A4BEEF09F0C0EF09F06C
:10137C00D0EF09F012C014F0010E156E142AC9EF4B
:10138C0009F0D8901536142EC7EF09F015508C12B1
:10139C0021EF09F01350D8A4D6EF09F0D8EF09F0DB
:1013AC003CEF09F012C014F0010E156E142AE1EF97
:1013BC0009F0D8901536142EDFEF09F01550FF0AFE
:1013CC008C1621EF09F0030E1260EFEF09F0F1EF2C
:1013DC0009F03CEF09F01304D8A4F7EF09F0F9EF8A
:1013EC0009F009EF0AF012C014F0010E156E142A60
:1013FC0002EF0AF0D8901536142E00EF0AF01550B3
:10140C008D1221EF09F01350D8A40FEF0AF011EF51
:10141C000AF03CEF09F012C014F0010E156E142AFC
:10142C001AEF0AF0D8901536142E18EF0AF0155052
:10143C00FF0A8D1621EF09F01650146E156A15501F
:10144C00000AD8B42CEF0AF03CEF09F01450000A53
:10145C00D8B403EF09F0010AD8B43EEF09F0030A3F
:10146C00D8B477EF09F0010AD8B4B0EF09F0070A45
:10147C00D8B4E9EF09F03CEF09F01200000E0001BE
:10148C00DF6F000EDE6FDEC01AF0DFC01BF0000E47
:10149C001D6E090E1C6E0CEC1BF0860E1A24D96EF8
:1014AC00000E1B20DA6EDF50D8A45FEF0AF061EF5C
:1014BC000AF031EF0BF0DEC01AF0DFC01BF0000EAB
:1014CC001D6E090E1C6E0CEC1BF0860E1A24D96EC8
:1014DC00000E1B20DA6E010EDF6EDEC01AF0DFC0CC
:1014EC001BF0000E1D6E090E1C6E0CEC1BF0870E13
:1014FC001A24D96E000E1B20DA6EDECFDCF0DDCFA5
:10150C00DDF002D895EF0AF005000001FA6EDC510F
:10151C00FD6EDD51FE6EF850FF6EFA501200DEC00B
:10152C001AF0DFC01BF0000E1D6E090E1C6E0CECC9
:10153C001BF0860E1A24D96E000E1B20DA6E020EDA
:10154C00DF6EDEC01AF0DFC01BF0000E1D6E090E40
:10155C001C6E0CEC1BF0850E1A24D96E000E1B2091
:10156C00DA6EDF50D8A4BDEF0AF0BFEF0AF031EF0E
:10157C000BF0DEC01AF0DFC01BF0000E1D6E090E62
:10158C001C6E0CEC1BF0800E1A24D96E000E1B2066
:10159C00DA6E000EDF6EDEC01AF0DFC01BF0000E3C
:1015AC001D6E090E1C6E0CEC1BF0830E1A24D96EEA
:1015BC00000E1B20DA6E000EDE6E000EDD6EDEC03D
:1015CC001AF0DFC01BF0000E1D6E090E1C6E0CEC29
:1015DC001BF0850E1A24D96E000E1B20DA6E000E3D
:1015EC00DF6EDEC01AF0DFC01BF0000E1D6E090EA0
:1015FC001C6E0CEC1BF0810E1A24D96E000E1B20F5
:10160C00DA6E000EDE6E000EDD6EDEC01AF0DFC08C
:10161C001BF0000E1D6E090E1C6E0CEC1BF0860EE2
:10162C001A24D96E000E1B20DA6E020EDF6EDEC09D
:10163C001AF0DFC01BF0000E1D6E090E1C6E0CECB8
:10164C001BF0870E1A24D96E000E1B20DA6E000ECA
:10165C00DE6E000EDD6E0001DE4BDF2BDF5109E18B
:10166C000A0EDE5DD8A03DEF0BF03FEF0BF049EF1B
:10167C000AF08FEC1BF012002B502C102D102E109A
:10168C00D8A44BEF0BF04DEF0BF052EF0BF0300EEC
:10169C0006EC0FF02FEF0CF02EBE59EF0BF057EFBE
:1016AC000BF064EF0BF02E1E2D1E2C1E2B6C000E5F
:1016BC002C222D222E222D0E06EC0FF0000E3B6E4E
:1016CC002BC037F02CC038F02DC039F02EC03AF0BA
:1016DC00010E3C6E000E3D6E000E3E6E000E3F6E17
:1016EC0093EF0BF037C01EF038C01FF039C020F05C
:1016FC003AC021F00A0E226E000E236E000E246EEC
:10170C00000E256E1CEC17F01EC037F01FC038F011
:10171C0020C039F021C03AF03B2A3750381039102C
:10172C003A10D8A49CEF0BF09EEF0BF078EF0BF077
:10173C00000E366EBDEF0BF03CC012F03DC013F046
:10174C003EC014F03FC015F00A0E166E000E176E58
:10175C00000E186E000E196E9EEC19F012C03CF0C3
:10176C0013C03DF014C03EF015C03FF0362AFF0EFA
:10177C002F6EFF0E306E3B50316E326A2F50312679
:10178C00305032223650336E346A3150335C345020
:10179C00800A356E3250800A3558D8A0D8EF0BF03D
:1017AC00DAEF0BF0A2EF0BF027EF0CF02BC01EF0D2
:1017BC002CC01FF02DC020F02EC021F03CC022F018
:1017CC003DC023F03EC024F03FC025F01CEC17F0C8
:1017DC001E50300F06EC0FF02BC012F02CC013F083
:1017EC002DC014F02EC015F03CC016F03DC017F003
:1017FC003EC018F03FC019F000EC18F012C02BF0EE
:10180C0013C02CF014C02DF015C02EF03CC01EF0EF
:10181C003DC01FF03EC020F03FC021F00A0E226EEA
:10182C00000E236E000E246E000E256E1CEC17F0BD
:10183C001EC03CF01FC03DF020C03EF021C03FF068
:10184C003B063B50D8A42DEF0CF02FEF0CF0DCEF47
:10185C000BF01200000E1E6E120E1F6E7A0E206E12
:10186C00000E216E2BC02FF02CC030F02DC031F0AB
:10187C002EC032F0060ED8902F3630363136323636
:10188C00E82E41EF0CF02FC022F030C023F031C015
:10189C0024F032C025F01CEC17F02150201006E18A
:1018AC001F04D8B05CEF0CF05EEF0CF0F3EF0CF013
:1018BC00000E1E6E120E1F6E7A0E206E000E216E22
:1018CC002BC02FF02CC030F02DC031F02EC032F0D8
:1018DC00020ED8902F36303631363236E82E6FEF76
:1018EC000CF02FC022F030C023F031C024F032C0F5
:1018FC0025F01CEC17F0FF0E1E24336EFF0E1F207C
:10190C00346E000E1E6E120E1F6E7A0E206E000EBE
:10191C00216E2BC022F02CC023F02DC024F02EC041
:10192C0025F01CEC17F01EC04AF01FC04BF034041D
:10193C00D8B0A3EF0CF0A5EF0CF0ACEF0CF0000E50
:10194C004C6E33508BEC1BF0EFEF0CF033C02FF0E0
:10195C0034C030F0D89030322F32D89030322F3211
:10196C003004D8B0BCEF0CF0BEEF0CF0D5EF0CF09F
:10197C00D8904B324A32D8904B324A32010E4C6ED0
:10198C0033C02FF034C030F0D89030322F32D89092
:10199C0030322F322F508BEC1BF0EFEF0CF04A3A19
:1019AC004B3A0F0E4A164B50F00B4A120F0E4B16B9
:1019BC00020E4C6E33C02FF034C030F0040E316E7A
:1019CC00D89030322F32312EE6EF0CF02F508BECBA
:1019DC001BF06BEC1BF0F7EF0CF0000E4B6E000ED7
:1019EC004A6E1200156E000E166E91EF0DF02A0E57
:1019FC00166EAEEF0DF0000E166EAEEF0DF0230E60
:101A0C00166EAEEF0DF01250136E146A1450000ADD
:101A1C00D8B413EF0DF0AEEF0DF01350000AD8B49C
:101A2C00FDEF0CF0010AD8B401EF0DF0030AD8B4A5
:101A3C0005EF0DF0AEEF0DF0070E166EAEEF0DF0DC
:101A4C00080E166EAEEF0DF0090E166EAEEF0DF021
:101A5C001250136E146A1450000AD8B438EF0DF0FB
:101A6C00AEEF0DF01350000AD8B422EF0DF0010ABE
:101A7C00D8B426EF0DF0030AD8B42AEF0DF0AEEF70
:101A8C000DF0040E166EAEEF0DF0050E166EAEEFE9
:101A9C000DF0060E166EAEEF0DF01250136E146AAA
:101AAC001450000AD8B45DEF0DF0AEEF0DF01350EA
:101ABC00000AD8B447EF0DF0010AD8B44BEF0DF083
:101ACC00030AD8B44FEF0DF0AEEF0DF0010E166E09
:101ADC00AEEF0DF0020E166EAEEF0DF0030E166E9D
:101AEC00AEEF0DF01250136E146A1450000AD8B4F5
:101AFC0082EF0DF0AEEF0DF01350000AD8B46CEF7E
:101B0C000DF0010AD8B470EF0DF0030AD8B474EFDD
:101B1C000DF0AEEF0DF01550136E146A1450000A50
:101B2C00D8B49BEF0DF0AEEF0DF01350000AD8B403
:101B3C0009EF0DF0010AD8B42EEF0DF0030AD8B45A
:101B4C0053EF0DF0010AD8B478EF0DF0AEEF0DF0B5
:101B5C0016501200156E42EF0EF00F0EC1125BEF15
:101B6C000EF00E0EC112B5EF0DF00D0EC112B5EF49
:101B7C000DF00C0EC112B5EF0DF00B0EC112B5EF3E
:101B8C000DF05BEF0EF01250136E146A1450000A35
:101B9C00D8B4D3EF0DF0C7EF0DF01350000AD8B442
:101BAC00B3EF0DF0010AD8B4B7EF0DF0030AD8B4B7
:101BBC00BBEF0DF0010AD8B4BFEF0DF0060AD8B494
:101BCC00C3EF0DF0C7EF0DF0030EC112B5EF0DF022
:101BDC00050EC112B5EF0DF0070EC112B5EF0DF0E9
:101BEC00060EC112B5EF0DF0C184B5EF0DF0125019
:101BFC00136E146A1450000AD8B407EF0EF0C7EF36
:101C0C000DF01350000AD8B4EAEF0DF0010AD8B465
:101C1C00EEEF0DF0030AD8B4F2EF0DF0010AD8B4D0
:101C2C00F6EF0DF0070AD8B4FAEF0DF0C7EF0DF090
:101C3C000A0EC112B5EF0DF0090EC112B5EF0DF081
:101C4C00C186B5EF0DF01250136E146A1450000AD1
:101C5C00D8B433EF0EF0C7EF0DF01350000AD8B420
:101C6C001EEF0EF0010AD8B422EF0EF0030AD8B41E
:101C7C0026EF0EF0C7EF0DF01550136E146A1450CA
:101C8C00000AD8B44CEF0EF0C7EF0DF01350000A59
:101C9C00D8B4C9EF0DF0010AD8B4FDEF0DF0050A68
:101CAC00D8B429EF0EF0C7EF0DF0120099EC1BF031
:101CBC00000E2C6E000E2B6E2BC01AF02CC01BF0DD
:101CCC00000E1D6E090E1C6E0CEC1BF0800E1A24FF
:101CDC00D96E000E1B20DA6EDF50D8A478EF0EF010
:101CEC007AEF0EF0F8EF0EF02BC01AF02CC01BF0B0
:101CFC00000E1D6E090E1C6E0CEC1BF0800E1A24CF
:101D0C00D96E000E1B20DA6E22C0DFFF2BC01AF03A
:101D1C002CC01BF0000E1D6E090E1C6E0CEC1BF083
:101D2C00830E1A24D96E000E1B20DA6E23C0DEFF40
:101D3C0024C0DDFF2BC01AF02CC01BF0000E1D6E52
:101D4C00090E1C6E0CEC1BF0850E1A24D96E000EBD
:101D5C001B20DA6E27C0DFFF50502524286E51500F
:101D6C002620296E010E2826000E29222BC01AF0DF
:101D7C002CC01BF0000E1D6E090E1C6E0CEC1BF023
:101D8C00810E1A24D96E000E1B20DA6E28C0DEFFDD
:101D9C0029C0DDFF2BC01AF02CC01BF0000E1D6EED
:101DAC00090E1C6E0CEC1BF0860E1A24D96E000E5C
:101DBC001B20DA6E020EDF6E2BC01AF02CC01BF04B
:101DCC00000E1D6E090E1C6E0CEC1BF0870E1A24F7
:101DDC00D96E000E1B20DA6E20C0DEFF21C0DDFFA5
:101DEC0005EF0FF02B4A2C2A2C5009E10A0E2B5C24
:101DFC00D8A003EF0FF005EF0FF062EF0EF012001A
:101E0C001D6E100E5E18D8A40EEF0FF010EF0FF031
:101E1C0017EF0FF0020E196E000E6EEC17F049EF73
:101E2C000FF0200E5E18D8A41EEF0FF020EF0FF06D
:101E3C0027EF0FF0030E196E000E6EEC17F049EF42
:101E4C000FF0300E5E18D8A42EEF0FF030EF0FF01D
:101E5C0037EF0FF0040E196E000E6EEC17F049EF11
:101E6C000FF0400E5E18D8A43EEF0FF040EF0FF0CD
:101E7C0049EF0FF0000E5E6E010E196E000E6EEC47
:101E8C0017F049EF0FF0020E126E010E136E040ED6
:101E9C0000EC09F0000E126E000E136E040E00EC36
:101EAC0009F0010E126E010E136E040E00EC09F017
:101EBC001DC012F0030EBAEC17F0010E126E000EDC
:101ECC00136E040E00EC09F0030EE82EFED700F0A2
:101EDC00010E126E010E136E040E00EC09F0060ECC
:101EEC00E82EFED700D0020E126E010E136E040EF9
:101EFC0000EC09F0000E126E000E136E040E00ECD6
:101F0C0009F0010E126E010E136E040E00EC09F0B6
:101F1C001D38F00B126E030EBAEC17F0010E126E98
:101F2C00000E136E040E00EC09F0030EE82EFED723
:101F3C0000F0010E126E010E136E040E00EC09F08F
:101F4C00060EE82EFED700D05E2A1200680E206E18
:101F5C00340E216E010E226E070E246ED00E236EEF
:101F6C00000E266E000E256E000E276E5CEC0EF039
:101F7C007E0E206E2D0E216E010E226E000E246E32
:101F8C00050E236E070E266ED00E256E000E276EE4
:101F9C005CEC0EF0BA0E206E350E216E010E226E28
:101FAC00030E246EE80E236E070E266EE40E256ECD
:101FBC00010E276E5CEC0EF00A0E206E0A0E216EDE
:101FCC00020E226E000E246E1E0E236E070E266E5F
:101FDC00E50E256E010E276E5CEC0EF0300E206EB9
:101FEC002B0E216E030E226E000E246E1E0E236E1F
:101FFC00070E266EE80E256E010E276E5CEC0EF0B9
:10200C00BC0E206E2C0E216E040E226E000E246E61
:10201C001E0E236E070E266EE90E256E010E276E20
:10202C005CEC0EF0A20E206E280E216E050E226EB8
:10203C00000E246E1E0E236E070E266EEA0E256E03
:10204C00010E276E5CEC0EF05A0E206E2A0E216EDD
:10205C00060E226E000E246E1E0E236E070E266ECA
:10206C00EB0E256E010E276E5CEC0EF0BA0E206E98
:10207C000C0E216E070E226E000E246E1E0E236EA9
:10208C00070E266EEC0E256E010E276E5CEC0EF024
:10209C001200246E245076EC03F0256E030E2518E6
:1020AC00D8A45BEF10F05DEF10F0ECEF10F0F00E39
:1020BC00126E220E136E86EC1BF097EC1BF0000ECA
:1020CC00276E000E266E26C01AF027C01BF0000EDD
:1020DC001D6E090E1C6E0CEC1BF0800E1A24D96EB2
:1020EC00000E1B20DA6E000EDF6E26C01AF027C021
:1020FC001BF0000E1D6E090E1C6E0CEC1BF0830EFB
:10210C001A24D96E000E1B20DA6E000EDE6E000E45
:10211C00DD6E26C01AF027C01BF0000E1D6E090ED6
:10212C001C6E0CEC1BF0850E1A24D96E000E1B20B5
:10213C00DA6E000EDF6E26C01AF027C01BF0000E00
:10214C001D6E090E1C6E0CEC1BF0810E1A24D96E40
:10215C00000E1B20DA6E000EDE6E000EDD6E26C049
:10216C001AF027C01BF0000E1D6E090E1C6E0CEC35
:10217C001BF0860E1A24D96E000E1B20DA6E020E8E
:10218C00DF6E26C01AF027C01BF0000E1D6E090E64
:10219C001C6E0CEC1BF0870E1A24D96E000E1B2043
:1021AC00DA6E000EDE6E000EDD6E264A272A2750F0
:1021BC0009E10A0E265CD8A0E6EF10F0E8EF10F06B
:1021CC0069EF10F095EC1BF0ECEF10F01200146EB0
:1021DC00C30EC2161444E846FC0BC212F00EC11614
:1021EC0036EF11F00E0EC112928077EF11F00D0E3A
:1021FC00C112928277EF11F00C0EC112928477EF1C
:10220C0011F00B0EC112928677EF11F00A0EC1126B
:10221C00928A77EF11F0090EC112968077EF11F0C8
:10222C00C186968277EF11F0070EC112968477EF74
:10223C0011F0060EC112938477EF11F0050EC11246
:10224C00938677EF11F0C184938277EF11F0030E30
:10225C00C112938877EF11F0C182938077EF11F060
:10226C001450126E136A1350000AD8B440EF11F0D8
:10227C0077EF11F01250000AD8B4F8EF10F0010A01
:10228C00D8B4FDEF10F0030AD8B402EF11F0010A34
:10229C00D8B407EF11F0070AD8B40CEF11F0010A0B
:1022AC00D8B411EF11F0030AD8B416EF11F0010AEB
:1022BC00D8B41AEF11F00F0AD8B41FEF11F0010ABD
:1022CC00D8B424EF11F0030AD8B429EF11F0010AA5
:1022DC00D8B42DEF11F0070AD8B432EF11F077EF24
:1022EC0011F01200504A512A401C016E411C026E22
:1022FC0032EC1BF0000E0A6E000E096E09C001F0E4
:10230C000AC002F0000E046E090E036E1FEC1BF0E7
:10231C00810E0124D96E000E0220DA6E5050DE18A8
:10232C0007E15150DE18D8A49EEF11F0A0EF11F088
:10233C00F2EF11F009C001F00AC002F0000E046EB9
:10234C00090E036E1FEC1BF0800E0124D96E000EDB
:10235C000220DA6EDF50D8B4B6EF11F0B8EF11F0FE
:10236C00F2EF11F009C001F00AC002F0000E046E89
:10237C00090E036E1FEC1BF0860E0124D96E000EA5
:10238C000220DA6E000EDF6E09C001F00AC002F006
:10239C00000E046E090E036E1FEC1BF0830E01245D
:1023AC00D96E000E0220DA6EDECF07F0DDCF08F01A
:1023BC0009C001F00AC002F0000E046E090E036E93
:1023CC001FEC1BF0810E0124D96E000E0220DA6E78
:1023DC000750DE260850DD22094A0A2A0A5009E174
:1023EC000A0E095CD8A0FDEF11F0FFEF11F084EF9D
:1023FC0011F01200156E166859EF12F012C013F09E
:10240C0080CF14F0132A0DEF12F0D8901432132E43
:10241C000BEF12F01450010B166E7AEF12F012C083
:10242C0013F081CF14F0132A1EEF12F0D89014324F
:10243C00132E1CEF12F01450010B166E7AEF12F0E3
:10244C0012C013F082CF14F0132A2FEF12F0D89091
:10245C001432132E2DEF12F01450010B166E7AEF6E
:10246C0012F012C013F083CF14F0132A40EF12F0C5
:10247C00D8901432132E3EEF12F01450010B166E3E
:10248C007AEF12F012C013F084CF14F0132A51EF2C
:10249C0012F0D8901432132E4FEF12F01450010B8F
:1024AC00166E7AEF12F01550136E146A1450000A5F
:1024BC00D8B463EF12F07AEF12F01350000AD8B4CC
:1024CC0004EF12F0010AD8B415EF12F0030AD8B4D5
:1024DC0026EF12F0010AD8B437EF12F0070AD8B47D
:1024EC0048EF12F07AEF12F01650120046504710D7
:1024FC00D8A483EF12F085EF12F0C6EF12F0010EA4
:10250C00196E000E6EEC17F0CE0E1E6E060E1F6EC0
:10251C0005EC1AF0010E196E0B0E6EEC17F0D50EC1
:10252C001E6E060E1F6E05EC1AF0340E1E6E060E95
:10253C001F6E05EC1AF0030E196E000E6EEC17F000
:10254C00960E1E6E060E1F6E05EC1AF0040E196E1A
:10255C00050E6EEC17F0A30E1E6E060E1F6E05EC2C
:10256C001AF0010E196E0B0E6EEC17F0D50E1E6ED6
:10257C00060E1F6E05EC1AF0464A472AF2EF12F0CF
:10258C00475007E1070E465CD8B0CFEF12F0D1EF01
:10259C0012F0D3EF12F0C2EF12F0070E46184710EC
:1025AC00D8A4DBEF12F0DDEF12F0E1EF12F080ECCB
:1025BC001BF0C2EF12F0475007E10E0E465CD8B08C
:1025CC00EAEF12F0ECEF12F0EEEF12F0C2EF12F0B5
:1025DC00000E476E000E466E12002E6E4AC012F0B0
:1025EC004BC013F0146A156A2B50166E176A186AD2
:1025FC00196A9EEC19F012C01EF013C01FF014C023
:10260C0020F015C021F0640E226E000E236E000E19
:10261C00246E000E256E1CEC17F01EC02FF01FC090
:10262C0030F02E50D8A41DEF13F01FEF13F043EF32
:10263C0013F02FA024EF13F026EF13F029EF13F073
:10264C00BD882AEF13F0BD982FA22FEF13F031EFB6
:10265C0013F034EF13F0BD8A35EF13F0BD9A2FC091
:10266C002CF030C02DF0D8902D322C32D8902D3249
:10267C002C322C50BE6E65EF13F02FA048EF13F0E8
:10268C004AEF13F04DEF13F0BA884EEF13F0BA98EF
:10269C002FA253EF13F055EF13F058EF13F0BA8A43
:1026AC0059EF13F0BA9A2FC02CF030C02DF0D890FF
:1026BC002D322C32D8902D322C322C50BB6E9BEC00
:1026CC001BF01200040E126E000E136E030EB3EC10
:1026DC0007F0050E126E000E136E030EB3EC07F02E
:1026EC00060E126E000E136E030EB3EC07F0070EFF
:1026FC00126E000E136E030EB3EC07F0020E126E88
:10270C00000E136E040EB3EC07F0000E126E000EEA
:10271C00136E040EB3EC07F0010E126E000E136E66
:10272C00040EB3EC07F0020E126E000E136E040EC4
:10273C0000EC09F0000E126E000E136E040E00EC8D
:10274C0009F0010E126E010E136E040E00EC09F06E
:10275C00280E126E030EBAEC17F0010E126E000E5C
:10276C00136E040E00EC09F0030EE82EFED700F0F9
:10277C00010E126E010E136E040E00EC09F0060E23
:10278C00E82EFED700D0280EFBEC15F000D00C0E76
:10279C00FBEC15F000D0010EFBEC15F00A0EE82E48
:1027AC00FED7060EFBEC15F000D000D01200070E81
:1027BC00126E000E136E020EB3EC07F0010E126EC9
:1027CC00000EB0EC0DF092EC1BF09FEC1BF0050E24
:1027DC00126E000E136E020EB3EC07F0010E126EA9
:1027EC00000E136E020EB3EC07F0010E126E010E0A
:1027FC00136E020E00EC09F0070E126E000E136E33
:10280C00010EB3EC07F0070E126E000E136E010EE4
:10281C0000EC09F0040E126E010E136E010EB3ECF7
:10282C0007F0050E126E010E136E010EB3EC07F0DD
:10283C0068EC13F0000E53EC1BF0B80E2B6E0B0E65
:10284C002C6E000E2D6E000E2E6E30EC0CF0000E69
:10285C00EDEC10F0020E63EC1BF0050E72EC1BF0AD
:10286C00010E4FEC10F0580E206E1F0E216E010E53
:10287C00226E000E246E010E236E000E266E000ECC
:10288C00256E000E276E5CEC0EF044EC0AF04BEF5C
:10289C0014F007EF00F0A6EF14F05404D8A459EF8D
:1028AC0014F05BEF14F069EF14F0050E126E000ECD
:1028BC00136E020E00EC09F0000EF6EC1AF0000E8E
:1028CC00546E76EF14F0020E5418D8A470EF14F076
:1028DC0072EF14F076EF14F0640E646E000E546E0A
:1028EC0061EC1AF0BFEF14F05450D8A480EF14F040
:1028FC0082EF14F076EF14F0000E43EC1BF0050E93
:10290C00126E010E136E020E00EC09F0010E546EE5
:10291C0076EF14F05404D8A496EF14F098EF14F05A
:10292C00BFEF14F0050E126E000E136E020E00ECCB
:10293C0009F0000EF6EC1AF0020E546EBFEF14F014
:10294C005D50316E326A3250000AD8B4B0EF14F0D8
:10295C00BFEF14F03150000AD8B453EF14F0010A51
:10296C00D8B47AEF14F0030AD8B490EF14F0BFEF98
:10297C0014F012005C04D8A4C6EF14F0C8EF14F0E5
:10298C002CEF15F0010E196E0B0E6EEC17F048C003
:10299C0020F049C021F0020E236E580E226EF9EC85
:1029AC0018F02050300F06EC0FF0000E236E3C0E8A
:1029BC00226E48C020F049C021F0F9EC18F020C07C
:1029CC0027F021C028F0000E2A6E0A0E296ED3ECD7
:1029DC0019F02750300F06EC0FF03A0E06EC0FF002
:1029EC00000E2A6E3C0E296E48C027F049C028F014
:1029FC00D3EC19F027C020F028C021F0000E236E74
:102A0C000A0E226EF9EC18F02050300F06EC0FF085
:102A1C00000E2A6E3C0E296E48C027F049C028F0E3
:102A2C00D3EC19F027C02CF028C02DF02CC027F0C7
:102A3C002DC028F0000E2A6E0A0E296ED3EC19F068
:102A4C002750300F06EC0FF0000E5C6E12007EEF7C
:102A5C0015F0000E456E000E446E010E126E010E46
:102A6C00136E020E00EC09F097EF15F0070E126EC4
:102A7C00010E136E010E00EC09F097EF15F0070E26
:102A8C00126E000E136E010E00EC09F0455007E1BA
:102A9C00140E445CD8B055EF15F057EF15F062EFFB
:102AAC0015F0444A452A010E126E000E136E020EEA
:102ABC0000EC09F097EF15F0455007E1280E445C47
:102ACC00D8B06BEF15F06DEF15F078EF15F0444AB8
:102ADC00452A010E126E010E136E020E00EC09F067
:102AEC0097EF15F0000E456E000E446E97EF15F043
:102AFC005D50186E196A1950000AD8B488EF15F099
:102B0C0097EF15F01850000AD8B42FEF15F0010A02
:102B1C00D8B43CEF15F0030AD8B445EF15F097EF95
:102B2C0015F012006650D8A49EEF15F0A0EF15F02A
:102B3C00F8EF15F0050E126E010E00EC12F0000904
:102B4C00D8A4ABEF15F0ADEF15F0F8EF15F0DFEF03
:102B5C0015F0522AFAEF15F05B50D8A4B8EF15F027
:102B6C00BAEF15F0BEEF15F0010E5B6EDBEF15F052
:102B7C00000E5B6EDBEF15F05D50176E186A185087
:102B8C00000AD8B4CCEF15F0DBEF15F01750000AA3
:102B9C00D8B4B2EF15F0010AD8B4DBEF15F0030A84
:102BAC00D8B4DBEF15F0DBEF15F0572A522AFAEF09
:102BBC0015F05250176E186A1850000AD8B4E9EF85
:102BCC0015F0FAEF15F01750000AD8B4AFEF15F066
:102BDC00010AD8B4AFEF15F0030AD8B4C2EF15F060
:102BEC00FAEF15F0000E526E1200186E020E126EF5
:102BFC00000E136E040E00EC09F0000E126E000EA7
:102C0C00136E040E00EC09F0010E126E010E136E21
:102C1C00040E00EC09F018C012F0030EBAEC17F019
:102C2C00010E126E000E136E040E00EC09F0030E72
:102C3C00E82EFED700F0010E126E010E136E040E7C
:102C4C0000EC09F0060EE82EFED700D0020E126E34
:102C5C00000E136E040E00EC09F0000E126E000E46
:102C6C00136E040E00EC09F0010E126E010E136EC1
:102C7C00040E00EC09F01838F00B126E030EBAECCF
:102C8C0017F0010E126E000E136E040E00EC09F01C
:102C9C00030EE82EFED700F0010E126E010E136E1D
:102CAC00040E00EC09F0060EE82EFED700D0120040
:102CBC00040E126E010E00EC12F00009D8A469EF9C
:102CCC0016F06BEF16F0BCEF16F0A3EF16F0532ACC
:102CDC00BEEF16F06604D8A476EF16F078EF16F077
:102CEC007CEF16F0000E666E9FEF16F0010E666E0E
:102CFC009FEF16F0000E666E000E5D6E9FEF16F0E5
:102D0C005D50176E186A1850000AD8B490EF16F080
:102D1C009FEF16F01750000AD8B470EF16F0010AA6
:102D2C00D8B49FEF16F0030AD8B480EF16F09FEFDB
:102D3C0016F0582A532ABEEF16F05350176E186A25
:102D4C001850000AD8B4ADEF16F0BEEF16F01750BD
:102D5C00000AD8B46DEF16F0010AD8B46DEF16F076
:102D6C00030AD8B486EF16F0BEEF16F0000E536EC1
:102D7C00120080EC1BF0DB0E1E6E060E1F6E05ECB7
:102D8C001AF0010E196E0B0E6EEC17F0E10E1E6EA2
:102D9C00060E1F6E05EC1AF0020E196E000E6EEC8C
:102DAC0017F0890E1E6E060E1F6E05EC1AF0020E41
:102DBC00196E0F0E6EEC17F0630E06EC0FF0030E8F
:102DCC00196E000E6EEC17F06604D8A4F0EF16F036
:102DDC00F2EF16F0FAEF16F0560E1E6E060E1F6E80
:102DEC0005EC1AF000EF17F0450E1E6E060E1F6E66
:102DFC0005EC1AF0040E196E000E6EEC17F05B5019
:102E0C00D8A40BEF17F00DEF17F015EF17F0780EA5
:102E1C001E6E060E1F6E05EC1AF01BEF17F0670EF8
:102E2C001E6E060E1F6E05EC1AF01200000E266EBA
:102E3C00000E276E000E286E000E296E22502310F5
:102E4C0024102510D8B42DEF17F02FEF17F065EFE5
:102E5C0017F0010E2A6E39EF17F0D8902236233670
:102E6C00243625362A2A25AE3EEF17F040EF17F010
:102E7C0033EF17F0D89026362736283629362250CD
:102E8C001E5C23501F582450205825502158D8A080
:102E9C0052EF17F054EF17F05DEF17F022501E5E53
:102EAC0023501F5A2450205A2550215A2680D8903E
:102EBC0025322432233222322A2E40EF17F026C03C
:102ECC001EF027C01FF028C020F029C021F01200EE
:102EDC001C6E100E1C6075EF17F077EF17F0B9EF42
:102EEC0017F09CEF17F01C50800FFBEC15F01CC07A
:102EFC005EF0B9EF17F01C50C00FFBEC15F01C5036
:102F0C00100F5E6EB9EF17F01C50900FFBEC15F024
:102F1C001C50200F5E6EB9EF17F01C50D00FFBEC5D
:102F2C0015F01C50300F5E6EB9EF17F019501A6E79
:102F3C001B6A1B50000AD8B4A6EF17F0B9EF17F0B4
:102F4C001A50010AD8B479EF17F0030AD8B481EFFC
:102F5C0017F0010AD8B48AEF17F0070AD8B493EF28
:102F6C0017F0B9EF17F01200166EDEEF17F0000E27
:102F7C00896E12508912FFEF17F0000E8A6E1250F4
:102F8C008A12FFEF17F0000E8B6E12508B12FFEFB0
:102F9C0017F0000E8C6E12508C12FFEF17F0F80E1B
:102FAC008D161250070B8D12FFEF17F0FFEF17F075
:102FBC001650136E146A1450000AD8B4E8EF17F0C8
:102FCC00DCEF17F01350000AD8B4BDEF17F0010A6C
:102FDC00D8B4C3EF17F0030AD8B4C9EF17F0010A3D
:102FEC00D8B4CFEF17F0070AD8B4D5EF17F0DCEF51
:102FFC0017F012001650171018101910D8B409EF4A
:10300C0018F00BEF18F03BEF18F0010E1A6E15EFDD
:10301C0018F0D89016361736183619361A2A19AEF3
:10302C001AEF18F01CEF18F00FEF18F01650125C96
:10303C00175013581850145819501558D8A029EF78
:10304C0018F02BEF18F033EF18F01650125E1750E3
:10305C00135A1850145A1950155AD890193218324C
:10306C00173216321A2E1CEF18F012C012F013C0C1
:10307C0013F014C014F015C015F012000600FACFAE
:10308C000CF0FBCF0DF0D9CF0EF0DACF0FF0F3CF61
:10309C0010F0F4CF11F0F2CF0BF0D8900B32D89097
:1030AC000B320BA05CEF18F05EEF18F075EF18F018
:1030BC004E504F10D8B465EF18F067EF18F074EF5E
:1030CC0018F002D874EF18F00500FA6E4E50FD6E31
:1030DC004F50FE6EF850FF6EFA501200F29411C071
:1030EC00F4FF10C0F3FF0FC0DAFF0EC0D9FF0DC004
:1030FC00FBFF0CC0FAFF6D9211005F0E186E000EF4
:10310C001A6E1AC012F0000E136E030E00EC09F0CA
:10311C00000E196E19C012F0010E00EC12F000092D
:10312C00D8A49BEF18F09DEF18F0A4EF18F019C07D
:10313C0012F01A50F8EC0CF0BEEF18F0192A020E2F
:10314C001964ABEF18F0ADEF18F090EF18F01AC04F
:10315C0012F0010E136E030E00EC09F01A2A030E86
:10316C001A64BBEF18F0BDEF18F087EF18F0185089
:10317C001200C2CF14F0D890143214B0C8EF18F06B
:10318C00CAEF18F0BFEF18F0146AC0AE01D0142AC1
:10319C0014A0D3EF18F0D5EF18F0DDEF18F0C450F1
:1031AC00146EC350186E14C019F0F4EF18F0C3CF9E
:1031BC0014F0060E156ED8901432152EE1EF18F09F
:1031CC001450C4CF16F0176AD89016361736D8900C
:1031DC00163617361610186E1750196E18C012F0D6
:1031EC0019C013F01200000E266E000E256E225030
:1031FC002310D8B404EF19F006EF19F02EEF19F0E4
:10320C00010E246E0EEF19F0D89022362336242AA4
:10321C0023AE13EF19F015EF19F00AEF19F0D8904F
:10322C00253626362250205C23502158D8A021EF79
:10323C0019F023EF19F028EF19F02250205E2350DB
:10324C00215A2580D89023322232242E15EF19F0E2
:10325C0025C020F026C021F012005F0E1D6E8EECF2
:10326C001AF083EC18F01E6E5F0E1E18D8B441EFE6
:10327C0019F043EF19F065EF19F04CEF19F05F2AD4
:10328C0067EF19F01EC01DF045EF19F05F501B6E73
:10329C001C6A1C50000AD8B456EF19F067EF19F0ED
:1032AC001B50000AD8B445EF19F0010AD8B448EF06
:1032BC0019F0030AD8B467EF19F067EF19F0000E94
:1032CC005F6E1D5012006150D8A46FEF19F071EFB2
:1032DC0019F074EF19F0D58C75EF19F0D59C62507C
:1032EC00D8A47BEF19F07DEF19F080EF19F0D59A87
:1032FC0081EF19F0D58A6250D8B487EF19F089EFB5
:10330C0019F08DEF19F0D5986338F00BD512080E23
:10331C006018D8B494EF19F096EF19F09CEF19F0EF
:10332C00F00ED5166050D5129DEF19F0D58612000F
:10333C00000E1A6E000E1B6E000E1C6E000E1D6E23
:10334C0012A0ABEF19F0ADEF19F0B5EF19F0165064
:10335C001A2617501B2218501C2219501D22D890C7
:10336C001636173618361936D890153214321332E1
:10337C0012321250131014101510D8A4C8EF19F0F3
:10338C00CAEF19F0A6EF19F01AC012F01BC013F017
:10339C001CC014F01DC015F0120029502A10D8B40E
:1033AC00DAEF19F0DCEF19F000EF1AF0010E2B6ECA
:1033BC00E4EF19F0D89029362A362B2A2AAEE9EFF9
:1033CC0019F0EBEF19F0E0EF19F02950275C2A50B7
:1033DC002858D8A0F4EF19F0F6EF19F0FAEF19F01D
:1033EC002950275E2A50285AD8902A3229322B2E5F
:1033FC00EBEF19F027C027F028C028F012001BEFC4
:10340C001AF01EC0F6FF1FC0F7FFF86A050EF7642E
:10341C0003D00800F55005D0F6CFE9FFF7CFEAFF4F
:10342C00EF5006EC0FF01E4A1F2A1EC0F6FF1FC0FD
:10343C00F7FFF86A050EF76403D00800F55005D0C5
:10344C00F6CFE9FFF7CFEAFFEF500009D8A431EF30
:10345C001AF033EF1AF007EF1AF01200010E196E82
:10346C00030E6EEC17F0AF0E1E6E060E1F6E05EC03
:10347C001AF0020E196E000E6EEC17F0230E1E6E73
:10348C00060E1F6E05EC1AF0030E196E000E6EEC94
:10349C0017F0BA0E1E6E060E1F6E05EC1AF0040E17
:1034AC00196E070E6EEC17F0C40E1E6E060E1F6E14
:1034BC0005EC1AF012009DEC1BF0BFEC18F012C0DA
:1034CC001AF013C01BF0000E1D6E320E1C6E0CECAD
:1034DC001BF01AC020F01BC021F0030E236E2268D3
:1034EC00F9EC18F02050596E59506418D8B481EF8B
:1034FC001AF083EF1AF08DEF1AF05950FE0DF350BD
:10350C00640F2B6E000EF3EC12F059C064F0120035
:10351C00000E196E19C012F0000E136E030EB3ECF0
:10352C0007F019C012F0010E136E030E00EC09F037
:10353C00192A030E1964A5EF1AF0A7EF1AF090EFF1
:10354C001AF0000E186E18C012F0010E136E010E58
:10355C00B3EC07F0182A020E1864B7EF1AF0B9EFA3
:10356C001AF0A9EF1AF01200F20EF66E360EF76E84
:10357C00000EF86E00EE60F010EE0DF00900F5CFC5
:10358C00EEFFE550E150FAE100EE80F05A0EEE6AE3
:10359C00E806FDE100EE40F0200EEE6AE806FDE1E3
:1035AC006D906D92000EF86E0001DDEF13F05D046E
:1035BC00D8A4E3EF1AF0E5EF1AF0F5EF1AF048068D
:1035CC00D8A04906010E5C6E48504910D8A4F1EF02
:1035DC001AF0F3EF1AF0F5EF1AF0020E5D6E12000E
:1035EC00126E1250D8A4FDEF1AF0FFEF1AF006EF8E
:1035FC001BF0BD96BD94BD92BD908B940BEF1BF050
:10360C00BA96BA94BA92BA908B9212001A501C02C3
:10361C00F3CF1EF0F4CF1FF01A501D02F3501F26EB
:10362C001B501C02F3501F261EC01AF01FC01BF0AB
:10363C00120001500302F3CF05F0F4CF06F0015055
:10364C000402F350062602500302F350062605C06E
:10365C0001F006C002F012006150D8A438EF1BF044
:10366C003AEF1BF03EEF1BF001C0D6FF42EF1BF010
:10367C000250D76E3AEF1BF01200126E1250D8A403
:10368C004AEF1BF04CEF1BF050EF1BF0BD86BD84D6
:10369C0052EF1BF0BA86BA841200126E000E4D6EF9
:1036AC001250D8A45CEF1BF05EEF1BF061EF1BF027
:1036BC00949462EF1BF094921200126EC70EC01617
:1036CC001238E842F80BC01212004D38E842F80BE1
:1036DC00CA6E4C50CA121200126EF80EC01612505E
:1036EC00C012C280120004010002645F0130303A43
:0336FC003030006B
:10370000010EFBEC15F0000E5E6E120012C04EF0C2
:1037100013C04FF01200126E12C0CBFF1200D39EE6
:1037200003001200070EB4121200D58E1200F28EA2
:103730001200F28A1200CA841200C2821200F19EA4
:02374000120075
:020000040020DA
:08000000FFFFFFFFFFFFFFFF00
:020000040030CA
:0E000000FF071F1EFF0085FF0FC00FE00F401F
:00000001FF
